{
  "contractName": "AccessToken",
  "abi": [
    {
      "inputs": [],
      "stateMutability": "nonpayable",
      "type": "constructor"
    },
    {
      "anonymous": false,
      "inputs": [
        {
          "indexed": true,
          "internalType": "address",
          "name": "owner",
          "type": "address"
        },
        {
          "indexed": true,
          "internalType": "address",
          "name": "approved",
          "type": "address"
        },
        {
          "indexed": true,
          "internalType": "uint256",
          "name": "tokenId",
          "type": "uint256"
        }
      ],
      "name": "Approval",
      "type": "event"
    },
    {
      "anonymous": false,
      "inputs": [
        {
          "indexed": true,
          "internalType": "address",
          "name": "owner",
          "type": "address"
        },
        {
          "indexed": true,
          "internalType": "address",
          "name": "operator",
          "type": "address"
        },
        {
          "indexed": false,
          "internalType": "bool",
          "name": "approved",
          "type": "bool"
        }
      ],
      "name": "ApprovalForAll",
      "type": "event"
    },
    {
      "anonymous": false,
      "inputs": [
        {
          "indexed": false,
          "internalType": "string",
          "name": "tokenuri",
          "type": "string"
        }
      ],
      "name": "TokenURI",
      "type": "event"
    },
    {
      "anonymous": false,
      "inputs": [
        {
          "indexed": true,
          "internalType": "address",
          "name": "from",
          "type": "address"
        },
        {
          "indexed": true,
          "internalType": "address",
          "name": "to",
          "type": "address"
        },
        {
          "indexed": true,
          "internalType": "uint256",
          "name": "tokenId",
          "type": "uint256"
        }
      ],
      "name": "Transfer",
      "type": "event"
    },
    {
      "inputs": [
        {
          "internalType": "address",
          "name": "to",
          "type": "address"
        },
        {
          "internalType": "uint256",
          "name": "tokenId",
          "type": "uint256"
        }
      ],
      "name": "approve",
      "outputs": [],
      "stateMutability": "nonpayable",
      "type": "function"
    },
    {
      "inputs": [
        {
          "internalType": "address",
          "name": "owner",
          "type": "address"
        }
      ],
      "name": "balanceOf",
      "outputs": [
        {
          "internalType": "uint256",
          "name": "",
          "type": "uint256"
        }
      ],
      "stateMutability": "view",
      "type": "function",
      "constant": true
    },
    {
      "inputs": [
        {
          "internalType": "uint256",
          "name": "tokenId",
          "type": "uint256"
        }
      ],
      "name": "getApproved",
      "outputs": [
        {
          "internalType": "address",
          "name": "",
          "type": "address"
        }
      ],
      "stateMutability": "view",
      "type": "function",
      "constant": true
    },
    {
      "inputs": [
        {
          "internalType": "address",
          "name": "owner",
          "type": "address"
        },
        {
          "internalType": "address",
          "name": "operator",
          "type": "address"
        }
      ],
      "name": "isApprovedForAll",
      "outputs": [
        {
          "internalType": "bool",
          "name": "",
          "type": "bool"
        }
      ],
      "stateMutability": "view",
      "type": "function",
      "constant": true
    },
    {
      "inputs": [],
      "name": "name",
      "outputs": [
        {
          "internalType": "string",
          "name": "",
          "type": "string"
        }
      ],
      "stateMutability": "view",
      "type": "function",
      "constant": true
    },
    {
      "inputs": [
        {
          "internalType": "uint256",
          "name": "tokenId",
          "type": "uint256"
        }
      ],
      "name": "ownerOf",
      "outputs": [
        {
          "internalType": "address",
          "name": "",
          "type": "address"
        }
      ],
      "stateMutability": "view",
      "type": "function",
      "constant": true
    },
    {
      "inputs": [
        {
          "internalType": "address",
          "name": "from",
          "type": "address"
        },
        {
          "internalType": "address",
          "name": "to",
          "type": "address"
        },
        {
          "internalType": "uint256",
          "name": "tokenId",
          "type": "uint256"
        }
      ],
      "name": "safeTransferFrom",
      "outputs": [],
      "stateMutability": "nonpayable",
      "type": "function"
    },
    {
      "inputs": [
        {
          "internalType": "address",
          "name": "from",
          "type": "address"
        },
        {
          "internalType": "address",
          "name": "to",
          "type": "address"
        },
        {
          "internalType": "uint256",
          "name": "tokenId",
          "type": "uint256"
        },
        {
          "internalType": "bytes",
          "name": "data",
          "type": "bytes"
        }
      ],
      "name": "safeTransferFrom",
      "outputs": [],
      "stateMutability": "nonpayable",
      "type": "function"
    },
    {
      "inputs": [
        {
          "internalType": "address",
          "name": "operator",
          "type": "address"
        },
        {
          "internalType": "bool",
          "name": "approved",
          "type": "bool"
        }
      ],
      "name": "setApprovalForAll",
      "outputs": [],
      "stateMutability": "nonpayable",
      "type": "function"
    },
    {
      "inputs": [
        {
          "internalType": "bytes4",
          "name": "interfaceId",
          "type": "bytes4"
        }
      ],
      "name": "supportsInterface",
      "outputs": [
        {
          "internalType": "bool",
          "name": "",
          "type": "bool"
        }
      ],
      "stateMutability": "view",
      "type": "function",
      "constant": true
    },
    {
      "inputs": [],
      "name": "symbol",
      "outputs": [
        {
          "internalType": "string",
          "name": "",
          "type": "string"
        }
      ],
      "stateMutability": "view",
      "type": "function",
      "constant": true
    },
    {
      "inputs": [
        {
          "internalType": "uint256",
          "name": "tokenId",
          "type": "uint256"
        }
      ],
      "name": "tokenURI",
      "outputs": [
        {
          "internalType": "string",
          "name": "",
          "type": "string"
        }
      ],
      "stateMutability": "view",
      "type": "function",
      "constant": true
    },
    {
      "inputs": [
        {
          "internalType": "address",
          "name": "from",
          "type": "address"
        },
        {
          "internalType": "address",
          "name": "to",
          "type": "address"
        },
        {
          "internalType": "uint256",
          "name": "tokenId",
          "type": "uint256"
        }
      ],
      "name": "transferFrom",
      "outputs": [],
      "stateMutability": "nonpayable",
      "type": "function"
    },
    {
      "inputs": [
        {
          "internalType": "string",
          "name": "tokenURI",
          "type": "string"
        },
        {
          "internalType": "uint256",
          "name": "creatorCode",
          "type": "uint256"
        }
      ],
      "name": "CreateLicense",
      "outputs": [
        {
          "internalType": "uint256",
          "name": "",
          "type": "uint256"
        }
      ],
      "stateMutability": "nonpayable",
      "type": "function"
    }
  ],
  "bytecode": "0x60806040523480156200001157600080fd5b506040518060400160405280601181526020017f52656c617920416363657373546f6b656e0000000000000000000000000000008152506040518060400160405280600581526020017f52656c617900000000000000000000000000000000000000000000000000000081525081600090816200008f919062000324565b508060019081620000a1919062000324565b5050506200040b565b600081519050919050565b7f4e487b7100000000000000000000000000000000000000000000000000000000600052604160045260246000fd5b7f4e487b7100000000000000000000000000000000000000000000000000000000600052602260045260246000fd5b600060028204905060018216806200012c57607f821691505b602082108103620001425762000141620000e4565b5b50919050565b60008190508160005260206000209050919050565b60006020601f8301049050919050565b600082821b905092915050565b600060088302620001ac7fffffffffffffffffffffffffffffffffffffffffffffffffffffffffffffffff826200016d565b620001b886836200016d565b95508019841693508086168417925050509392505050565b6000819050919050565b6000819050919050565b600062000205620001ff620001f984620001d0565b620001da565b620001d0565b9050919050565b6000819050919050565b6200022183620001e4565b6200023962000230826200020c565b8484546200017a565b825550505050565b600090565b6200025062000241565b6200025d81848462000216565b505050565b5b8181101562000285576200027960008262000246565b60018101905062000263565b5050565b601f821115620002d4576200029e8162000148565b620002a9846200015d565b81016020851015620002b9578190505b620002d1620002c8856200015d565b83018262000262565b50505b505050565b600082821c905092915050565b6000620002f960001984600802620002d9565b1980831691505092915050565b6000620003148383620002e6565b9150826002028217905092915050565b6200032f82620000aa565b67ffffffffffffffff8111156200034b576200034a620000b5565b5b62000357825462000113565b6200036482828562000289565b600060209050601f8311600181146200039c576000841562000387578287015190505b62000393858262000306565b86555062000403565b601f198416620003ac8662000148565b60005b82811015620003d657848901518255600182019150602085019450602081019050620003af565b86831015620003f65784890151620003f2601f891682620002e6565b8355505b6001600288020188555050505b505050505050565b612aab806200041b6000396000f3fe608060405234801561001057600080fd5b50600436106100ea5760003560e01c806370a082311161008c578063a22cb46511610066578063a22cb4651461026f578063b88d4fde1461028b578063c87b56dd146102a7578063e985e9c5146102d7576100ea565b806370a08231146101f15780638a6b7e601461022157806395d89b4114610251576100ea565b8063095ea7b3116100c8578063095ea7b31461016d57806323b872dd1461018957806342842e0e146101a55780636352211e146101c1576100ea565b806301ffc9a7146100ef57806306fdde031461011f578063081812fc1461013d575b600080fd5b610109600480360381019061010491906117e8565b610307565b6040516101169190611830565b60405180910390f35b6101276103e9565b60405161013491906118db565b60405180910390f35b61015760048036038101906101529190611933565b61047b565b60405161016491906119a1565b60405180910390f35b610187600480360381019061018291906119e8565b6104c1565b005b6101a3600480360381019061019e9190611a28565b6105d8565b005b6101bf60048036038101906101ba9190611a28565b610638565b005b6101db60048036038101906101d69190611933565b610658565b6040516101e891906119a1565b60405180910390f35b61020b60048036038101906102069190611a7b565b610709565b6040516102189190611ab7565b60405180910390f35b61023b60048036038101906102369190611c07565b6107c0565b6040516102489190611ab7565b60405180910390f35b61025961084e565b60405161026691906118db565b60405180910390f35b61028960048036038101906102849190611c8f565b6108e0565b005b6102a560048036038101906102a09190611d70565b6108f6565b005b6102c160048036038101906102bc9190611933565b610958565b6040516102ce91906118db565b60405180910390f35b6102f160048036038101906102ec9190611df3565b610a6a565b6040516102fe9190611830565b60405180910390f35b60007f80ac58cd000000000000000000000000000000000000000000000000000000007bffffffffffffffffffffffffffffffffffffffffffffffffffffffff1916827bffffffffffffffffffffffffffffffffffffffffffffffffffffffff191614806103d257507f5b5e139f000000000000000000000000000000000000000000000000000000007bffffffffffffffffffffffffffffffffffffffffffffffffffffffff1916827bffffffffffffffffffffffffffffffffffffffffffffffffffffffff1916145b806103e257506103e182610afe565b5b9050919050565b6060600080546103f890611e62565b80601f016020809104026020016040519081016040528092919081815260200182805461042490611e62565b80156104715780601f1061044657610100808354040283529160200191610471565b820191906000526020600020905b81548152906001019060200180831161045457829003601f168201915b5050505050905090565b600061048682610b68565b6004600083815260200190815260200160002060009054906101000a900473ffffffffffffffffffffffffffffffffffffffff169050919050565b60006104cc82610658565b90508073ffffffffffffffffffffffffffffffffffffffff168373ffffffffffffffffffffffffffffffffffffffff160361053c576040517f08c379a000000000000000000000000000000000000000000000000000000000815260040161053390611f05565b60405180910390fd5b8073ffffffffffffffffffffffffffffffffffffffff1661055b610bb3565b73ffffffffffffffffffffffffffffffffffffffff16148061058a575061058981610584610bb3565b610a6a565b5b6105c9576040517f08c379a00000000000000000000000000000000000000000000000000000000081526004016105c090611f97565b60405180910390fd5b6105d38383610bbb565b505050565b6105e96105e3610bb3565b82610c74565b610628576040517f08c379a000000000000000000000000000000000000000000000000000000000815260040161061f90612029565b60405180910390fd5b610633838383610d09565b505050565b610653838383604051806020016040528060008152506108f6565b505050565b6000806002600084815260200190815260200160002060009054906101000a900473ffffffffffffffffffffffffffffffffffffffff169050600073ffffffffffffffffffffffffffffffffffffffff168173ffffffffffffffffffffffffffffffffffffffff1603610700576040517f08c379a00000000000000000000000000000000000000000000000000000000081526004016106f790612095565b60405180910390fd5b80915050919050565b60008073ffffffffffffffffffffffffffffffffffffffff168273ffffffffffffffffffffffffffffffffffffffff1603610779576040517f08c379a000000000000000000000000000000000000000000000000000000000815260040161077090612127565b60405180910390fd5b600360008373ffffffffffffffffffffffffffffffffffffffff1673ffffffffffffffffffffffffffffffffffffffff168152602001908152602001600020549050919050565b60008060075462989680846107d59190612176565b6107df91906121b8565b90506107eb3382610f6f565b6107f58185611148565b60076000815480929190610808906121ec565b91905055507fb4a6bfb48c3ae76f3f056c0591271a8564850844bfb72aa2f6f42099828d19f08460405161083c91906118db565b60405180910390a18091505092915050565b60606001805461085d90611e62565b80601f016020809104026020016040519081016040528092919081815260200182805461088990611e62565b80156108d65780601f106108ab576101008083540402835291602001916108d6565b820191906000526020600020905b8154815290600101906020018083116108b957829003601f168201915b5050505050905090565b6108f26108eb610bb3565b83836111b5565b5050565b610907610901610bb3565b83610c74565b610946576040517f08c379a000000000000000000000000000000000000000000000000000000000815260040161093d90612029565b60405180910390fd5b61095284848484611321565b50505050565b606061096382610b68565b600060066000848152602001908152602001600020805461098390611e62565b80601f01602080910402602001604051908101604052809291908181526020018280546109af90611e62565b80156109fc5780601f106109d1576101008083540402835291602001916109fc565b820191906000526020600020905b8154815290600101906020018083116109df57829003601f168201915b505050505090506000610a0d61137d565b90506000815103610a22578192505050610a65565b600082511115610a57578082604051602001610a3f929190612270565b60405160208183030381529060405292505050610a65565b610a6084611394565b925050505b919050565b6000600560008473ffffffffffffffffffffffffffffffffffffffff1673ffffffffffffffffffffffffffffffffffffffff16815260200190815260200160002060008373ffffffffffffffffffffffffffffffffffffffff1673ffffffffffffffffffffffffffffffffffffffff16815260200190815260200160002060009054906101000a900460ff16905092915050565b60007f01ffc9a7000000000000000000000000000000000000000000000000000000007bffffffffffffffffffffffffffffffffffffffffffffffffffffffff1916827bffffffffffffffffffffffffffffffffffffffffffffffffffffffff1916149050919050565b610b71816113fc565b610bb0576040517f08c379a0000000000000000000000000000000000000000000000000000000008152600401610ba790612095565b60405180910390fd5b50565b600033905090565b816004600083815260200190815260200160002060006101000a81548173ffffffffffffffffffffffffffffffffffffffff021916908373ffffffffffffffffffffffffffffffffffffffff160217905550808273ffffffffffffffffffffffffffffffffffffffff16610c2e83610658565b73ffffffffffffffffffffffffffffffffffffffff167f8c5be1e5ebec7d5bd14f71427d1e84f3dd0314c0f7b2291e5b200ac8c7c3b92560405160405180910390a45050565b600080610c8083610658565b90508073ffffffffffffffffffffffffffffffffffffffff168473ffffffffffffffffffffffffffffffffffffffff161480610cc25750610cc18185610a6a565b5b80610d0057508373ffffffffffffffffffffffffffffffffffffffff16610ce88461047b565b73ffffffffffffffffffffffffffffffffffffffff16145b91505092915050565b8273ffffffffffffffffffffffffffffffffffffffff16610d2982610658565b73ffffffffffffffffffffffffffffffffffffffff1614610d7f576040517f08c379a0000000000000000000000000000000000000000000000000000000008152600401610d7690612306565b60405180910390fd5b600073ffffffffffffffffffffffffffffffffffffffff168273ffffffffffffffffffffffffffffffffffffffff1603610dee576040517f08c379a0000000000000000000000000000000000000000000000000000000008152600401610de590612398565b60405180910390fd5b610df9838383611468565b610e04600082610bbb565b6001600360008573ffffffffffffffffffffffffffffffffffffffff1673ffffffffffffffffffffffffffffffffffffffff1681526020019081526020016000206000828254610e5491906123b8565b925050819055506001600360008473ffffffffffffffffffffffffffffffffffffffff1673ffffffffffffffffffffffffffffffffffffffff1681526020019081526020016000206000828254610eab91906121b8565b92505081905550816002600083815260200190815260200160002060006101000a81548173ffffffffffffffffffffffffffffffffffffffff021916908373ffffffffffffffffffffffffffffffffffffffff160217905550808273ffffffffffffffffffffffffffffffffffffffff168473ffffffffffffffffffffffffffffffffffffffff167fddf252ad1be2c89b69c2b068fc378daa952ba7f163c4a11628f55a4df523b3ef60405160405180910390a4610f6a83838361146d565b505050565b600073ffffffffffffffffffffffffffffffffffffffff168273ffffffffffffffffffffffffffffffffffffffff1603610fde576040517f08c379a0000000000000000000000000000000000000000000000000000000008152600401610fd590612438565b60405180910390fd5b610fe7816113fc565b15611027576040517f08c379a000000000000000000000000000000000000000000000000000000000815260040161101e906124a4565b60405180910390fd5b61103360008383611468565b6001600360008473ffffffffffffffffffffffffffffffffffffffff1673ffffffffffffffffffffffffffffffffffffffff168152602001908152602001600020600082825461108391906121b8565b92505081905550816002600083815260200190815260200160002060006101000a81548173ffffffffffffffffffffffffffffffffffffffff021916908373ffffffffffffffffffffffffffffffffffffffff160217905550808273ffffffffffffffffffffffffffffffffffffffff16600073ffffffffffffffffffffffffffffffffffffffff167fddf252ad1be2c89b69c2b068fc378daa952ba7f163c4a11628f55a4df523b3ef60405160405180910390a46111446000838361146d565b5050565b611151826113fc565b611190576040517f08c379a000000000000000000000000000000000000000000000000000000000815260040161118790612536565b60405180910390fd5b806006600084815260200190815260200160002090816111b09190612702565b505050565b8173ffffffffffffffffffffffffffffffffffffffff168373ffffffffffffffffffffffffffffffffffffffff1603611223576040517f08c379a000000000000000000000000000000000000000000000000000000000815260040161121a90612820565b60405180910390fd5b80600560008573ffffffffffffffffffffffffffffffffffffffff1673ffffffffffffffffffffffffffffffffffffffff16815260200190815260200160002060008473ffffffffffffffffffffffffffffffffffffffff1673ffffffffffffffffffffffffffffffffffffffff16815260200190815260200160002060006101000a81548160ff0219169083151502179055508173ffffffffffffffffffffffffffffffffffffffff168373ffffffffffffffffffffffffffffffffffffffff167f17307eab39ab6107e8899845ad3d59bd9653f200f220920489ca2b5937696c31836040516113149190611830565b60405180910390a3505050565b61132c848484610d09565b61133884848484611472565b611377576040517f08c379a000000000000000000000000000000000000000000000000000000000815260040161136e906128b2565b60405180910390fd5b50505050565b606060405180602001604052806000815250905090565b606061139f82610b68565b60006113a961137d565b905060008151116113c957604051806020016040528060008152506113f4565b806113d3846115f9565b6040516020016113e4929190612270565b6040516020818303038152906040525b915050919050565b60008073ffffffffffffffffffffffffffffffffffffffff166002600084815260200190815260200160002060009054906101000a900473ffffffffffffffffffffffffffffffffffffffff1673ffffffffffffffffffffffffffffffffffffffff1614159050919050565b505050565b505050565b60006114938473ffffffffffffffffffffffffffffffffffffffff16611759565b156115ec578373ffffffffffffffffffffffffffffffffffffffff1663150b7a026114bc610bb3565b8786866040518563ffffffff1660e01b81526004016114de9493929190612927565b6020604051808303816000875af192505050801561151a57506040513d601f19601f820116820180604052508101906115179190612988565b60015b61159c573d806000811461154a576040519150601f19603f3d011682016040523d82523d6000602084013e61154f565b606091505b506000815103611594576040517f08c379a000000000000000000000000000000000000000000000000000000000815260040161158b906128b2565b60405180910390fd5b805181602001fd5b63150b7a0260e01b7bffffffffffffffffffffffffffffffffffffffffffffffffffffffff1916817bffffffffffffffffffffffffffffffffffffffffffffffffffffffff1916149150506115f1565b600190505b949350505050565b606060008203611640576040518060400160405280600181526020017f30000000000000000000000000000000000000000000000000000000000000008152509050611754565b600082905060005b6000821461167257808061165b906121ec565b915050600a8261166b91906129e4565b9150611648565b60008167ffffffffffffffff81111561168e5761168d611adc565b5b6040519080825280601f01601f1916602001820160405280156116c05781602001600182028036833780820191505090505b5090505b6000851461174d576001826116d991906123b8565b9150600a856116e89190612a15565b60306116f491906121b8565b60f81b81838151811061170a57611709612a46565b5b60200101907effffffffffffffffffffffffffffffffffffffffffffffffffffffffffffff1916908160001a905350600a8561174691906129e4565b94506116c4565b8093505050505b919050565b6000808273ffffffffffffffffffffffffffffffffffffffff163b119050919050565b6000604051905090565b600080fd5b600080fd5b60007fffffffff0000000000000000000000000000000000000000000000000000000082169050919050565b6117c581611790565b81146117d057600080fd5b50565b6000813590506117e2816117bc565b92915050565b6000602082840312156117fe576117fd611786565b5b600061180c848285016117d3565b91505092915050565b60008115159050919050565b61182a81611815565b82525050565b60006020820190506118456000830184611821565b92915050565b600081519050919050565b600082825260208201905092915050565b60005b8381101561188557808201518184015260208101905061186a565b60008484015250505050565b6000601f19601f8301169050919050565b60006118ad8261184b565b6118b78185611856565b93506118c7818560208601611867565b6118d081611891565b840191505092915050565b600060208201905081810360008301526118f581846118a2565b905092915050565b6000819050919050565b611910816118fd565b811461191b57600080fd5b50565b60008135905061192d81611907565b92915050565b60006020828403121561194957611948611786565b5b60006119578482850161191e565b91505092915050565b600073ffffffffffffffffffffffffffffffffffffffff82169050919050565b600061198b82611960565b9050919050565b61199b81611980565b82525050565b60006020820190506119b66000830184611992565b92915050565b6119c581611980565b81146119d057600080fd5b50565b6000813590506119e2816119bc565b92915050565b600080604083850312156119ff576119fe611786565b5b6000611a0d858286016119d3565b9250506020611a1e8582860161191e565b9150509250929050565b600080600060608486031215611a4157611a40611786565b5b6000611a4f868287016119d3565b9350506020611a60868287016119d3565b9250506040611a718682870161191e565b9150509250925092565b600060208284031215611a9157611a90611786565b5b6000611a9f848285016119d3565b91505092915050565b611ab1816118fd565b82525050565b6000602082019050611acc6000830184611aa8565b92915050565b600080fd5b600080fd5b7f4e487b7100000000000000000000000000000000000000000000000000000000600052604160045260246000fd5b611b1482611891565b810181811067ffffffffffffffff82111715611b3357611b32611adc565b5b80604052505050565b6000611b4661177c565b9050611b528282611b0b565b919050565b600067ffffffffffffffff821115611b7257611b71611adc565b5b611b7b82611891565b9050602081019050919050565b82818337600083830152505050565b6000611baa611ba584611b57565b611b3c565b905082815260208101848484011115611bc657611bc5611ad7565b5b611bd1848285611b88565b509392505050565b600082601f830112611bee57611bed611ad2565b5b8135611bfe848260208601611b97565b91505092915050565b60008060408385031215611c1e57611c1d611786565b5b600083013567ffffffffffffffff811115611c3c57611c3b61178b565b5b611c4885828601611bd9565b9250506020611c598582860161191e565b9150509250929050565b611c6c81611815565b8114611c7757600080fd5b50565b600081359050611c8981611c63565b92915050565b60008060408385031215611ca657611ca5611786565b5b6000611cb4858286016119d3565b9250506020611cc585828601611c7a565b9150509250929050565b600067ffffffffffffffff821115611cea57611ce9611adc565b5b611cf382611891565b9050602081019050919050565b6000611d13611d0e84611ccf565b611b3c565b905082815260208101848484011115611d2f57611d2e611ad7565b5b611d3a848285611b88565b509392505050565b600082601f830112611d5757611d56611ad2565b5b8135611d67848260208601611d00565b91505092915050565b60008060008060808587031215611d8a57611d89611786565b5b6000611d98878288016119d3565b9450506020611da9878288016119d3565b9350506040611dba8782880161191e565b925050606085013567ffffffffffffffff811115611ddb57611dda61178b565b5b611de787828801611d42565b91505092959194509250565b60008060408385031215611e0a57611e09611786565b5b6000611e18858286016119d3565b9250506020611e29858286016119d3565b9150509250929050565b7f4e487b7100000000000000000000000000000000000000000000000000000000600052602260045260246000fd5b60006002820490506001821680611e7a57607f821691505b602082108103611e8d57611e8c611e33565b5b50919050565b7f4552433732313a20617070726f76616c20746f2063757272656e74206f776e6560008201527f7200000000000000000000000000000000000000000000000000000000000000602082015250565b6000611eef602183611856565b9150611efa82611e93565b604082019050919050565b60006020820190508181036000830152611f1e81611ee2565b9050919050565b7f4552433732313a20617070726f76652063616c6c6572206973206e6f7420746f60008201527f6b656e206f776e6572206e6f7220617070726f76656420666f7220616c6c0000602082015250565b6000611f81603e83611856565b9150611f8c82611f25565b604082019050919050565b60006020820190508181036000830152611fb081611f74565b9050919050565b7f4552433732313a2063616c6c6572206973206e6f7420746f6b656e206f776e6560008201527f72206e6f7220617070726f766564000000000000000000000000000000000000602082015250565b6000612013602e83611856565b915061201e82611fb7565b604082019050919050565b6000602082019050818103600083015261204281612006565b9050919050565b7f4552433732313a20696e76616c696420746f6b656e2049440000000000000000600082015250565b600061207f601883611856565b915061208a82612049565b602082019050919050565b600060208201905081810360008301526120ae81612072565b9050919050565b7f4552433732313a2061646472657373207a65726f206973206e6f74206120766160008201527f6c6964206f776e65720000000000000000000000000000000000000000000000602082015250565b6000612111602983611856565b915061211c826120b5565b604082019050919050565b6000602082019050818103600083015261214081612104565b9050919050565b7f4e487b7100000000000000000000000000000000000000000000000000000000600052601160045260246000fd5b6000612181826118fd565b915061218c836118fd565b925082820261219a816118fd565b915082820484148315176121b1576121b0612147565b5b5092915050565b60006121c3826118fd565b91506121ce836118fd565b92508282019050808211156121e6576121e5612147565b5b92915050565b60006121f7826118fd565b91507fffffffffffffffffffffffffffffffffffffffffffffffffffffffffffffffff820361222957612228612147565b5b600182019050919050565b600081905092915050565b600061224a8261184b565b6122548185612234565b9350612264818560208601611867565b80840191505092915050565b600061227c828561223f565b9150612288828461223f565b91508190509392505050565b7f4552433732313a207472616e736665722066726f6d20696e636f72726563742060008201527f6f776e6572000000000000000000000000000000000000000000000000000000602082015250565b60006122f0602583611856565b91506122fb82612294565b604082019050919050565b6000602082019050818103600083015261231f816122e3565b9050919050565b7f4552433732313a207472616e7366657220746f20746865207a65726f2061646460008201527f7265737300000000000000000000000000000000000000000000000000000000602082015250565b6000612382602483611856565b915061238d82612326565b604082019050919050565b600060208201905081810360008301526123b181612375565b9050919050565b60006123c3826118fd565b91506123ce836118fd565b92508282039050818111156123e6576123e5612147565b5b92915050565b7f4552433732313a206d696e7420746f20746865207a65726f2061646472657373600082015250565b6000612422602083611856565b915061242d826123ec565b602082019050919050565b6000602082019050818103600083015261245181612415565b9050919050565b7f4552433732313a20746f6b656e20616c7265616479206d696e74656400000000600082015250565b600061248e601c83611856565b915061249982612458565b602082019050919050565b600060208201905081810360008301526124bd81612481565b9050919050565b7f45524337323155524953746f726167653a2055524920736574206f66206e6f6e60008201527f6578697374656e7420746f6b656e000000000000000000000000000000000000602082015250565b6000612520602e83611856565b915061252b826124c4565b604082019050919050565b6000602082019050818103600083015261254f81612513565b9050919050565b60008190508160005260206000209050919050565b60006020601f8301049050919050565b600082821b905092915050565b6000600883026125b87fffffffffffffffffffffffffffffffffffffffffffffffffffffffffffffffff8261257b565b6125c2868361257b565b95508019841693508086168417925050509392505050565b6000819050919050565b60006125ff6125fa6125f5846118fd565b6125da565b6118fd565b9050919050565b6000819050919050565b612619836125e4565b61262d61262582612606565b848454612588565b825550505050565b600090565b612642612635565b61264d818484612610565b505050565b5b818110156126715761266660008261263a565b600181019050612653565b5050565b601f8211156126b65761268781612556565b6126908461256b565b8101602085101561269f578190505b6126b36126ab8561256b565b830182612652565b50505b505050565b600082821c905092915050565b60006126d9600019846008026126bb565b1980831691505092915050565b60006126f283836126c8565b9150826002028217905092915050565b61270b8261184b565b67ffffffffffffffff81111561272457612723611adc565b5b61272e8254611e62565b612739828285612675565b600060209050601f83116001811461276c576000841561275a578287015190505b61276485826126e6565b8655506127cc565b601f19841661277a86612556565b60005b828110156127a25784890151825560018201915060208501945060208101905061277d565b868310156127bf57848901516127bb601f8916826126c8565b8355505b6001600288020188555050505b505050505050565b7f4552433732313a20617070726f766520746f2063616c6c657200000000000000600082015250565b600061280a601983611856565b9150612815826127d4565b602082019050919050565b60006020820190508181036000830152612839816127fd565b9050919050565b7f4552433732313a207472616e7366657220746f206e6f6e20455243373231526560008201527f63656976657220696d706c656d656e7465720000000000000000000000000000602082015250565b600061289c603283611856565b91506128a782612840565b604082019050919050565b600060208201905081810360008301526128cb8161288f565b9050919050565b600081519050919050565b600082825260208201905092915050565b60006128f9826128d2565b61290381856128dd565b9350612913818560208601611867565b61291c81611891565b840191505092915050565b600060808201905061293c6000830187611992565b6129496020830186611992565b6129566040830185611aa8565b818103606083015261296881846128ee565b905095945050505050565b600081519050612982816117bc565b92915050565b60006020828403121561299e5761299d611786565b5b60006129ac84828501612973565b91505092915050565b7f4e487b7100000000000000000000000000000000000000000000000000000000600052601260045260246000fd5b60006129ef826118fd565b91506129fa836118fd565b925082612a0a57612a096129b5565b5b828204905092915050565b6000612a20826118fd565b9150612a2b836118fd565b925082612a3b57612a3a6129b5565b5b828206905092915050565b7f4e487b7100000000000000000000000000000000000000000000000000000000600052603260045260246000fdfea26469706673582212209163f22c0f671f0d6b5f2de31f6efebf710b5e00ebee88e18464dc1babb80efd64736f6c63430008110033",
  "immutableReferences": {},
  "source": "pragma solidity ^0.8.7;\r\n// SPDX-License-Identifier: MIT\r\n\r\nimport \"@openzeppelin/contracts/token/ERC721/extensions/ERC721URIStorage.sol\";\r\n\r\n\r\n\r\ncontract AccessToken is ERC721URIStorage {\r\n    uint256 counter;\r\n    // mapping (uint256 => string) private _tokenURIs;\r\n\r\n    constructor()  ERC721(\"Relay AccessToken\", \"Relay\") {\r\n\r\n    }\r\n    event TokenURI(string tokenuri);\r\n\r\n    // function _setTokenURI(uint256 tokenId,string memory tokenURI)internal virtual{\r\n    //     _tokenURIs[tokenId] = tokenURI;\r\n\r\n    // }\r\n    function CreateLicense( string memory tokenURI,uint256 creatorCode)public returns(uint256)\r\n    {\r\n        uint256 newItemId = creatorCode * 10000000 +counter;\r\n        _mint(msg.sender, newItemId);\r\n        _setTokenURI(newItemId, tokenURI);\r\n        counter++;\r\n        emit TokenURI(tokenURI);\r\n\r\n        return newItemId;\r\n    }\r\n}",
  "sourcePath": "D:\\Dev\\BlockChain\\Projects\\CBS\\CBS\\contracts\\AccessToken.sol",
  "compiler": {
    "name": "solc",
    "version": "0.8.17+commit.8df45f5f.Emscripten.clang"
  },
  "schemaVersion": "3.4.8",
  "updatedAt": "2022-11-05T10:05:00.417Z",
  "networkType": "ethereum",
  "devdoc": {
    "kind": "dev",
    "methods": {
      "approve(address,uint256)": {
        "details": "See {IERC721-approve}."
      },
      "balanceOf(address)": {
        "details": "See {IERC721-balanceOf}."
      },
      "getApproved(uint256)": {
        "details": "See {IERC721-getApproved}."
      },
      "isApprovedForAll(address,address)": {
        "details": "See {IERC721-isApprovedForAll}."
      },
      "name()": {
        "details": "See {IERC721Metadata-name}."
      },
      "ownerOf(uint256)": {
        "details": "See {IERC721-ownerOf}."
      },
      "safeTransferFrom(address,address,uint256)": {
        "details": "See {IERC721-safeTransferFrom}."
      },
      "safeTransferFrom(address,address,uint256,bytes)": {
        "details": "See {IERC721-safeTransferFrom}."
      },
      "setApprovalForAll(address,bool)": {
        "details": "See {IERC721-setApprovalForAll}."
      },
      "supportsInterface(bytes4)": {
        "details": "See {IERC165-supportsInterface}."
      },
      "symbol()": {
        "details": "See {IERC721Metadata-symbol}."
      },
      "tokenURI(uint256)": {
        "details": "See {IERC721Metadata-tokenURI}."
      },
      "transferFrom(address,address,uint256)": {
        "details": "See {IERC721-transferFrom}."
      }
    },
    "version": 1
  },
  "userdoc": {
    "kind": "user",
    "methods": {},
    "version": 1
  }
}